:100000000A128A1112280800FE00030EF4000408E8
:10001000F5000A08F600831203137F08F7000A129E
:100020008A15002C0A128A152E2C0A128A157E2592
:100030000A128A1100300A128A1131260A128A1114
:1000400083160313310883120313BC01BC07831604
:100050000313300883120313BB01BB073C08DF0105
:10006000DF073B08DE01DE070A128A1555260A1251
:100070008A11831203135F08B001B0075E08AF0155
:10008000AF073008DF01DF072F08DE01DE070A12A5
:100090008A15A5260A128A11831203135F08F90133
:1000A000F9075E08F801F8077908DB01DB07780833
:1000B000DA01DA070A128A11A5230A128A1101301D
:1000C0000A128A1131260A128A1183160313330881
:1000D00083120313BE01BE07831603133208831273
:1000E0000313BD01BD073E08DF01DF073D08DE0148
:1000F000DE070A128A1555260A128A118312031383
:100100005F08B201B2075E08B101B1073208E00131
:10011000E0073108DF01DF070A128A1545270A12B6
:100120008A1183120313600883160313CB01CB07D4
:10013000831203135F0883160313CA01CA074B080F
:1001400083120313D801D807831603134A088312B6
:100150000313D701D7070A128A11CF240A128A1172
:1001600003300A128A1131260A128A1183160313E8
:10017000370883120313C201C2078316031336081C
:1001800083120313C101C1074208DF01DF074108E1
:10019000DE01DE070A128A1555260A128A11831219
:1001A00003135F08B601B6075E08B501B507360848
:1001B000DF01DF073508DE01DE070A128A15F526A2
:1001C0000A128A11831203135F08BA01BA075E0884
:1001D000B901B9073A08D801D8073908D701D707B4
:1001E0000A128A11A4260A128A11831203133A08EA
:1001F000EB003908EA000130FF000310EA0DEB0DB7
:10020000FF0BFD286A08DE006B08DF000A128A1562
:10021000BF250A128A1183120313EC00ED016C084A
:10022000A7006D08A8002808D201D2072708D1012D
:10023000D10780300A128A159E240A128A11803052
:100240000A128A11E3220A128A1102300A128A1152
:1002500031260A128A1183160313350883120313F9
:10026000C001C00783160313340883120313BF01B0
:10027000BF074008DF01DF073F08DE01DE070A1283
:100280008A1555260A128A11831203135F08B401D6
:10029000B4075E08B301B3073408DF01DF07330892
:1002A000DE01DE070A128A15F5260A128A11831268
:1002B00003135F0883160313CD01CD0783120313C5
:1002C0005E0883160313CC01CC0783120313CC08FA
:1002D000031D6B296C2981290130A9070318AA0A7B
:1002E0000030AA0704302A02003003192902031C37
:1002F0007A297B298129FF30A9000330AA008129AE
:100300008129CD08031D85298629972900302A02D5
:10031000023003192902031C8E298F2997290130E5
:10032000A9020030031CAA03AA02972997292A08C8
:10033000D201D2072908D101D10700300A128A154B
:100340009E240A128A1100300A128A11E3220A122C
:100350008A110800C32A1530831203134E02031CAE
:10036000B229B329C02933300A128A1564240A122B
:100370008A1183120313CF010314CF0DCE01E22A99
:100380000130D7005708CE07E22AE22A33300A129A
:100390008A1564240A128A11023083120313D700CB
:1003A0005708CF00D3290A128A1547250A128A1145
:1003B00083120313D7005708CB00CB08031DE12994
:1003C000E229E22A0F300A128A1564240A128A11DD
:1003D000033083120313D7005708CF00E22AE22A22
:1003E000E22A0A128A1547250A128A118312031378
:1003F000D7005708CB00CB08031DFF29002AE22AAB
:1004000001300A128A1564240A128A1104308312F8
:100410000313D7005708CF00CE01E22AE22AE22ACE
:1004200002304E02031C152A162A342A0A128A1593
:1004300047250A128A1183120313D7005708CB00ED
:10044000CB08031D242A252AE22A06300A128A151F
:1004500064240A128A11053083120313D700570847
:10046000CF00CE01E22AE22A0130D7005708CE079A
:10047000E22AE22A0A128A1547250A128A118312F1
:100480000313D7005708CB00CB08031D482A492A7D
:10049000E22A0630D7005708CF00E22AE22A0A12E1
:1004A0008A1547250A128A1183120313D7005708A9
:1004B000CB00CB08031D5D2A5E2AE22A65304E027E
:1004C000031C632A642A6B2A0730D7005708CF0021
:1004D000C501CE01E22A0130D7005708CE07E22A33
:1004E000E22AE22A0A128A1547250A128A11831281
:1004F0000313D7005708CB00CB08031D802A812A9D
:10050000E22A02300A128A1564240A128A1108307B
:1005100083120313D7005708CF00E22AE22A0A12F7
:100520008A1547250A128A1183120313D700570828
:10053000CB00CB08031D9D2A9E2AE22A4508A03E37
:10054000840083130008D7005708CA004A080A121B
:100550008A1581240A128A11013083120313D700ED
:100560005708C50711304502031CB72AB82AE22AEA
:100570000630D7005708CF00C501E22AE22AE22A56
:10058000CF01E22AE22A831203134F08003A03192B
:10059000AB29013A0319C629033A0319D329013AB1
:1005A0000319F129073A0319102A013A03193A2AC3
:1005B000033A03194F2A013A0319722A0F3A031911
:1005C0008F2AC02A080083120313E200261FE92A9B
:1005D000EA2A002B0430203E840083130008DE004A
:1005E000840A0008DF0004300310DF0CDE0CFF3E3D
:1005F000031DF42A5E08FF3E831603139200002BAE
:100600008312A61E042B052BA42BE21F082B092BFB
:10061000562B2508E401E4072408E301E3076308F7
:10062000D1006408D200D301D4012008D5002108EC
:10063000D600D701D8010A128A1509260A128A1192
:10064000831203135108DE005208DF005308E00054
:100650005408E1000A300310E10CE00CDF0CDE0C62
:10066000FF3E031D2B2B5F08E401E4075E08E30156
:10067000E307631C3C2B3D2B3F2B9716402B971217
:10068000631C432B442B462B1716482B1712482B61
:100690006408DF006308DE0002300310DF0CDE0CAC
:1006A000FF3E031D4D2B5E089500A42B2508E40199
:1006B000E4072408E301E3076308D1006408D200DB
:1006C000D301D4012208D5002308D600D701D801D0
:1006D0000A128A1509260A128A1183120313510875
:1006E000DE005208DF005308E0005408E1000A3041
:1006F0000310E10CE00CDF0CDE0CFF3E031D782B39
:100700005F08E401E4075E08E301E307631C892B4B
:100710008A2B8C2B9D168D2B9D12631C902B912B5D
:10072000932B1D16952B1D12952B6408DF00630873
:10073000DE0002300310DF0CDE0CFF3E031D9A2B9F
:100740005E089B00A42BA42B080083120313E30173
:100750005B08DD005A08DC000B300310DD0CDC0CFC
:10076000FF3E031DAD2B5C08AB005D08AC002B0801
:10077000DC005C08E3000A30D1000030D2006308DE
:10078000DC00DD015C08D3005D08D4000A128A1584
:1007900098270A128A11831203135108DE005E089B
:1007A000E0000A30D1000030D2006308DC00DD0137
:1007B0005C08D3005D08D4000A128A1148250A1289
:1007C0008A11831203135108DE005E08E3000A3029
:1007D000D1000030D2006308DC00DD015C08D300EA
:1007E0005D08D4000A128A1598270A128A1183120A
:1007F00003135108DE005E08DF00FF305A05E100F8
:1008000007305B05E2006208D201D2076108D1011E
:10081000D1070A30D3000030D4000A128A15E92427
:100820000A128A11831203135208E201E2075108E7
:10083000E101E1076208DD006108DC000B30031014
:10084000DD0CDC0CFF3E031D1F2C5C08E1005D0885
:10085000E2005F08DC005C08C8004808303EDC00AD
:100860005C0883160313A000831203136008DC00E6
:100870005C08C6004608303EDC005C0883160313A3
:10088000A100563083120313DC005C0883160313A7
:10089000A200831203136108303EDC005C0883165B
:1008A0000313A3000800013083160313BA070030B6
:1008B00003180130BB07003003180130BC070030BB
:1008C00003180130BD070130BE07003003180130A6
:1008D000BF07003003180130C00700300318013093
:1008E000C1070130C207003003180130C3070030D0
:1008F00003180130C407003003180130C507063063
:10090000F0007008831203138107831603133E1D42
:100910008A2C8B2C9D2C8312031350080138F00075
:100920007008D000003083160313C1000030C000EF
:100930000030BF000030BE009D2CC8304205F000E2
:1009400000304305F10000304405F2000030450559
:10095000F30000307306031DB72C00307206031D30
:10096000B72C00307106031DB72CC8307006031D6C
:10097000BA2CBB2CCD2C8312031350080238F00084
:100980007008D000003083160313C5000030C40087
:100990000030C3000030C200CD2C0B1108008312C0
:1009A0000313DB015808DA005708D9000C30031094
:1009B000DA0CD90CFF3E031DD72C5908DC005A086D
:1009C000DD005D08AC01AC075C08AB01AB072B0890
:1009D000D9005908DB00FF305705AD000F3058052E
:1009E000AE002E08D201D2072D08D101D1070A305E
:1009F000D3000030D4000A128A15E9240A128A11A1
:100A0000831203135208AE01AE075108AD01AD07C2
:100A10002E08DA002D08D9000C300310DA0CD90C9E
:100A2000FF3E031D0D2D5908AD005A08AE002D08DC
:100A3000D9005908C7002B08D9005908C9002F3020
:100A4000D900590883160313A4008312031349081D
:100A5000303ED900590883160313A5002E308312A7
:100A60000313D900590883160313A6008312031336
:100A70004708303ED900590883160313A7004130B8
:100A800083120313D900590883160313A800080022
:100A900083120313D701D21F4E2D4F2D582DD1098C
:100AA000D209D10A0319D20AD7010314D70D582D40
:100AB000D41F5B2D5C2D662DD309D409D30A0319ED
:100AC000D40A0130D5005508D706662DD801D901C2
:100AD0005208510403196D2D6E2DAC2DD60103144F
:100AE000D60D7E2D01300310D10DD20DFF3E031D1A
:100AF000732D0130D5005508D6077E2DD21F812DCC
:100B0000822D722D842D842D01300310D80DD90D26
:100B1000FF3E031D852D52085402031D912D5108DF
:100B20005302031C942D952D9D2D5108D30252087C
:100B3000031CD403D40258149D2D01300310D20C91
:100B4000D10CFF3E031D9E2D0130D602031DA92DA1
:100B5000AA2D842DAC2DAC2D5708031DB02DB62D1C
:100B6000D809D909D80A0319D90AB62D5908D201CA
:100B7000D2075808D101D107BD2D08000A128A11E9
:100B800015270A128A110A128A11F5270A128A11E8
:100B9000C92D83120313D01CCE2DCF2DEC2D0A129C
:100BA0008A1115200A128A11831203135008FD3985
:100BB000EE006E08D000013083160313BE0700302C
:100BC00003180130BF07003003180130C0070030A0
:100BD00003180130C107EC2D8312501CF02DF12DAC
:100BE000FE2D0A128A15BD230A128A1183120313DD
:100BF0005008FE39EE006E08D000FE2DFF3083163F
:100C000003133D02031D0E2EFF303C02031D0E2E6A
:100C1000FF303B02031D0E2E01303A02031C112E41
:100C2000122EC92D0030BD000030BC000030BB00CA
:100C30000030BA000030C1000030C0000030BF00FA
:100C40000030BE000030C5000030C4000030C300DA
:100C50000030C2008B17C92DC92DC92D0A128A1167
:100C6000122883120313D2005218372E3B2E831200
:100C700003139F153E2E831203139F115208D100B8
:100C800001300310D10CFF3E031D412E5118492E97
:100C90004D2E831203131F16502E831203131F129F
:100CA0005208D10002300310D10CFF3E031D532E19
:100CB00051185B2E5F2E831203139F16622E831230
:100CC00003139F12D30105305302031C682E692EB3
:100CD0006B2E752E752E0130D1005108D3070530CB
:100CE0005302031C742E752E6B2E0C131F15782EB9
:100CF0000C1F7B2E7C2E782E1F197F2E802E782E97
:100D0000D30105305302031C862E872E892E942E84
:100D1000942E0130D1005108D30705305302031C33
:100D2000922E932E892E942E5208D1005107B03E58
:100D30008400831603131E0883138000840A831221
:100D400003131E088000080083120313DB015808F8
:100D5000DA005708D9000C300310DA0CD90CFF3E2A
:100D6000031DAC2E5908DC005A08DD005D08AC01FB
:100D7000AC075C08AB01AB072B08D9005908DB00B6
:100D8000FF305705AD000F305805AE002E08D201D8
:100D9000D2072D08D101D1070A30D3000030D4008A
:100DA0000A128A15E9240A128A11831203135208BF
:100DB000AE01AE075108AD01AD072E08DA002D08CF
:100DC000D9000C300310DA0CD90CFF3E031DE22EC3
:100DD0005908AD005A08AE002D08D9005908C700BF
:100DE0002B08D9005908C9004908303ED9005908D4
:100DF00083160313AC002E3083120313D900590855
:100E000083160313AD00831203134708303ED90045
:100E1000590883160313AE00413083120313D9001F
:100E2000590883160313AF0008000A128A15CC2351
:100E30000A128A1183120313A701A801A901AA01AA
:100E4000A030D1000F30D2000A128A1548240A12AD
:100E50008A11831203132808D201D2072708D1016F
:100E6000D10780300A128A159E240A128A11803016
:100E70000A128A11E3220A128A1180300A128A1594
:100E800017240A128A11831203132A08D201D207E7
:100E90002908D101D10700300A128A159E240A12AE
:100EA0008A1100300A128A11E3220A128A110030D4
:100EB0000A128A1517240A128A110A128A15EA23BD
:100EC0000A128A110A128A1103200A128A110A12BE
:100ED0008A1515250A128A11003083120313D100D6
:100EE0000030D200DE300A128A15C3240A128A1199
:100EF000003083120313D1000030D200CE300A122A
:100F00008A15C3240A128A110800003083120313C1
:100F1000DD000030DC000030DB000030DA00540877
:100F20005304520451040319962F972FEB2FDE011F
:100F30000314DE0DA92F0130D9000310D10DD20DFD
:100F4000D30DD40DD90B9D2F0130D9005908DE07E0
:100F5000A92FD41FAC2FAD2F9B2FAF2FAF2F013058
:100F6000D9000310DA0DDB0DDC0DDD0DD90BB12F2F
:100F700054085802031DC62F53085702031DC62FDD
:100F800052085602031DC62F51085502031CC92FD3
:100F9000CA2FDA2F5108D5025208031C520FD6026D
:100FA0005308031C530FD7025408031C540FD802D4
:100FB0005A14DA2F01300310D40CD30CD20CD10CFC
:100FC000FF3E031DDB2F0130DE02031DE82FE92F5A
:100FD000AF2FEB2FEB2F5D08D4005C08D3005B082C
:100FE000D2005A08D100F42F08008316031381128F
:100FF00081110111811001108B160B178B1708003E
:10177A0064000A128A11AA210A128A150800640052
:10178A008001840A0406031900340406C52B831653
:10179A000313050885008601870183120313860156
:1017AA008701080083120313D200D301D301E22B6D
:1017BA000130D1005108D307E22B52085302031C0F
:1017CA00E72BE82BDD2BE92B0800831603131F13E5
:1017DA00831203139F171F17831603139F179F1153
:1017EA001F119F141F1005148514051585158312E2
:1017FA0003131F1408000B1D032C042C0A2C0A12B5
:10180A008A1153240A128A150A2C770883120313A1
:10181A00FF0076088A0075088400740E8300FE0EA5
:10182A007E0E090083120313D100831603130711D6
:10183A00871083120313921012101215D11F262C2F
:10184A00272C2A2C971517152D2C9D151D152D2C77
:10185A000800F801F901FA01FB01FC0183132030A9
:10186A00840051300A128A15C4230A128A15A0303C
:10187A008400E8300A128A15C4230A128A158301E1
:10188A000A128A11BE2D0430831203135202003049
:10189A0003195102031C522C532C582CFF30D1002F
:1018AA000330D200582C5208A501A5075108A401FB
:1018BA00A40726084038D3005308A600080083125C
:1018CA000313D4008316031386010A300A128A15F9
:1018DA00D7230A128A158312031387110712871650
:1018EA00540886000A300A128A15D7230A128A1562
:1018FA00831203138712080083120313D40083167A
:10190A00031386010A300A128A15D7230A128A1586
:10191A0083120313871507128716540886000A30A4
:10192A000A128A15D7230A128A15831203138712F9
:10193A00080083120313D400043052020130031941
:10194A0051020318A92CAA2CC22C26082038D3002D
:10195A005308A600D41FB22CB32CBA2C5208A101EA
:10196A00A1075108A001A007C22C5208A301A3078E
:10197A005108A201A207C22CC22C08008312031329
:10198A00D500D601D60109305602031CCD2CCE2C27
:10199A00D02CE82CE82C5608D30053075507D4005E
:1019AA0054088400510883138000840A5208800076
:1019BA000130D3005308D60709305602031CE62C1F
:1019CA00E72CD02CE82C080083120313D501D6018A
:1019DA00EE2C511CF12CF22CF82C5308D5070318C5
:1019EA00D60A5408D60701300310D30DD40DFF3E92
:1019FA00031DF92C01300310D20CD10CFF3E031D3C
:101A0A00002D52085104031D0B2D0C2DEE2C0D2D0B
:101A1A005608D201D2075508D101D107142D080062
:101A2A0083120313C601C801AB01AC01C901C70186
:101A3A00CE01CB01FA010710C50110304502031C83
:101A4A00272D282D2A2D3D2D3D2D2030D10045084A
:101A5A00A03E84005108831380000130D100510850
:101A6A00C50710304502031C3B2D3C2D2A2D3D2D68
:101A7A001130D100510883160313A00083120313F7
:101A8A00CF01080083120313D601FF308316031314
:101A9A0086000A300A128A15D7230A128A15831277
:101AAA0003138711071687160608D4005408D600B0
:101ABA000A300A128A15D7230A128A1583120313C7
:101ACA0087120A300A128A15D7230A128A15831234
:101ADA0003135608D40007300310D40CFF3E031D2D
:101AEA00712D54080139D5005508D60056087D2DA8
:101AFA00080004300A128A1131260A128A1583163E
:101B0A000313390883120313C401C407831603138A
:101B1A00380883120313C301C3074408DF01DF0730
:101B2A004308DE01DE070A128A1555260A128A15AB
:101B3A00831203135F08B801B8075E08B701B70735
:101B4A000B303802B830031937020318AD2DAE2D09
:101B5A00B02DCD01B42DCD010314CD0DB42D051E2C
:101B6A00B72DB82DBC2DCC010314CC0DBE2DCC0144
:101B7A00BE2D080083120313E8010030E70000308D
:101B8A00E6000030E5000030E4005E08D1005F089E
:101B9A00D200D301D4010030D8000030D700003081
:101BAA00D6003730D5000A128A1509260A128A1574
:101BBA00831203135108E0005208E1005308E200BF
:101BCA005408E3000B300310E30CE20CE10CE00CC8
:101BDA00FF3E031DE82D6308E7006208E60061087E
:101BEA00E5006008E4006408E0006008E800653089
:101BFA006802031C012E022E062E6430E0006008E3
:101C0A00E8006808082E0800003083120313DD007C
:101C1A000030DC000030DB000030DA00142E511CEA
:101C2A00172E182E302E5508DA07560803110318F6
:101C3A00013E0319212EDB07570803110318013E41
:101C4A000319282EDC07580803110318013E03194B
:101C5A002F2EDD07302E0130D9000310D50DD60DF9
:101C6A00D70DD80DD90B322E01300310D40CD30C5A
:101C7A00D20CD10CFF3E031D3A2E540853045204D1
:101C8A005104031D492E4A2E142E4B2E5D08D400F2
:101C9A005C08D3005B08D2005A08D100542E080011
:101CAA0083120313E401E5010030E9000030E80083
:101CBA000030E7000030E6005E08D1005F08D2007D
:101CCA00D301D4010030D8000030D7002830D60024
:101CDA000030D5000A128A1509260A128A158312BB
:101CEA0003135408E9005308E8005208E7005108B2
:101CFA00E6006608E0006708E1006808E200690893
:101D0A00E3000A300310E30CE20CE10CE00CFF3EA6
:101D1A00031D872E6308E9006208E8006108E700EE
:101D2A006008E6006708E501E5076608E401E407DC
:101D3A006508DF01DF076408DE01DE07A42E08005C
:101D4A0083120313E401E5010030E9000030E800E2
:101D5A000030E7000030E6005E08D1005F08D200DC
:101D6A00D301D4010030D8000030D7000030D600AB
:101D7A005B30D5000A128A1509260A128A158312BF
:101D8A0003135408E9005308E8005208E700510811
:101D9A00E6006608E0006708E1006808E2006908F2
:101DAA00E30004300310E30CE20CE10CE00CFF3E0C
:101DBA00031DD72E6308E9006208E8006108E700FE
:101DCA006008E6006708E501E5076608E401E4073C
:101DDA006508DF01DF076408DE01DE07F42E08006C
:101DEA0083120313E401E5010030E9000030E80042
:101DFA000030E7000030E6005E08D1005F08D2003C
:101E0A00D301D4010030D8000030D7000030D6000A
:101E1A005D30D5000A128A1509260A128A1583121C
:101E2A0003135408E9005308E8005208E700510870
:101E3A00E6006608E0006708E1006808E200690851
:101E4A00E30006300310E30CE20CE10CE00CFF3E69
:101E5A00031D272F6308E9006208E8006108E7000C
:101E6A006008E6006708E501E5076608E401E4079B
:101E7A006508DF01DF076408DE01DE07442F08007A
:101E8A00003083120313E8000030E7000030E60058
:101E9A000030E5006008E2005F08E100023003104C
:101EAA00E20CE10CFF3E031D542F6108E5006208B5
:101EBA00E600E701E8010030D4000030D30000302A
:101ECA00D2000A30D1006508E1006608E20067081E
:101EDA00E3006808E40005300310E10DE20DE30DAC
:101EEA00E40DFF3E031D712F6408D8006308D70074
:101EFA006208D6006108D5000A128A1185270A12DB
:101F0A008A15831203135408E8005308E70052089D
:101F1A00E6005108E5006608E001E0076508DF0110
:101F2A00DF07972F080083120313D701D41F9E2FB0
:101F3A009F2FA82FD309D409D30A0319D40AD7018A
:101F4A000314D70DA82FD21FAB2FAC2FB22FD10954
:101F5A00D209D10A0319D20AB22F5208510403191D
:101F6A00B72FB82FEE2FD6010314D60DC82F013084
:101F7A000310D10DD20DFF3E031DBD2F0130D50038
:101F8A005508D607C82FD21FCB2FCC2FBC2FCE2F48
:101F9A00CE2F52085402031DD42F51085302031C9A
:101FAA00D72FD82FDF2F5108D3025208031CD4038E
:101FBA00D402DF2F01300310D20CD10CFF3E031DD7
:101FCA00E02F0130D602031DEB2FEC2FCE2FEE2F80
:101FDA00EE2F5708031DF22FF82FD309D409D30A7D
:101FEA000319D40AF82F5408D201D2075308D10191
:061FFA00D107FF2F0800D3
:00000001FF
