:020000040800F2
:1000000000000420553D0008E13C0008E33C0008E6
:10001000E53C0008E73C0008E93C0008000000005F
:10002000000000000000000000000000212D00087A
:10003000EB3C000800000000C12D0008ED3C00086A
:10004000A53D0008A53D0008A53D0008A53D000808
:10005000A53D0008A53D0008A53D0008A53D0008F8
:10006000A53D0008A53D0008A53D0008A53D0008E8
:10007000A53D0008A53D0008A53D0008A53D0008D8
:10008000A53D0008A53D0008A53D0008A53D0008C8
:10009000A53D0008A53D0008A53D0008A53D0008B8
:1000A000A53D0008F53C0008A53D0008A53D000859
:1000B000A53D0008A53D0008A53D0008A53D000898
:1000C000A53D0008A53D0008A53D0008A53D000888
:1000D000A53D0008A53D0008A53D0008A53D000878
:1000E000A53D0008A53D0008A53D0008A53D000868
:1000F000A53D0008A53D0008A53D0008A53D000858
:10010000A53D0008A53D0008A53D0008A53D000847
:10011000A53D0008A53D0008A53D0008A53D000837
:10012000A53D0008A53D0008A53D0008A53D000827
:10013000A53D0008000000000000000000000000D5
:10014000000000000000000000000000A53D0008C5
:10015000A53D0008A53D0008A53D0008A53D0008F7
:10016000A53D0008A53D0008A53D0008A53D0008E7
:10017000A53D0008A53D000800000000A53D0008C1
:10018000A53D0008A53D0008A53D0008A53D0008C7
:10019000A53D0008A53D000800000000A53D0008A1
:1001A000000000000000000000000000A53D000865
:1001B000A53D0008A53D000800000000000000006B
:1001C000000000000000000000000000000000002F
:1001D000000000000000000000000000A53D000835
:1001E00010B5054C237833B9044B13B10448AFF371
:1001F00000800123237010BD1000002000000000CB
:10020000F03D000808B5034B1BB103490348AFF3A9
:10021000008008BD0000000014000020F03D000830
:1002200081F0004102E000BF83F0004330B54FEAA7
:1002300041044FEA430594EA050F08BF90EA020F14
:100240001FBF54EA000C55EA020C7FEA645C7FEAA7
:10025000655C00F0E2804FEA5454D4EB5555B8BFCA
:100260006D420CDD2C4480EA020281EA030382EA3B
:10027000000083EA010180EA020281EA0303362DCD
:1002800088BF30BD11F0004F4FEA01314FF4801CA0
:100290004CEA113102D0404261EB410113F0004FB2
:1002A0004FEA03334CEA133302D0524263EB430369
:1002B00094EA050F00F0A780A4F10104D5F1200E07
:1002C0000DDB02FA0EFC22FA05F2801841F1000162
:1002D00003FA0EF2801843FA05F359410EE0A5F136
:1002E00020050EF1200E012A03FA0EFC28BF4CF067
:1002F000020C43FA05F3C01851EBE37101F000451D
:1003000007D54FF0000EDCF1000C7EEB00006EEB29
:100310000101B1F5801F1BD3B1F5001F0CD34908B3
:100320005FEA30004FEA3C0C04F101044FEA44520A
:1003300012F5800F80F09A80BCF1004F08BF5FEA91
:10034000500C50F1000041EB045141EA050130BD71
:100350005FEA4C0C404141EB010111F4801FA4F114
:100360000104E9D191F0000F04BF01460020B1FA69
:1003700081F308BF2033A3F10B03B3F120020CDAA1
:100380000C3208DD02F1140CC2F10C0201FA0CF07F
:1003900021FA02F10CE002F11402D8BFC2F1200CE4
:1003A00001FA02F120FA0CFCDCBF41EA0C0190409A
:1003B000E41AA2BF01EB0451294330BD6FEA0404E3
:1003C0001F3C1CDA0C340EDC04F11404C4F12002CE
:1003D00020FA04F001FA02F340EA030021FA04F3E0
:1003E00045EA030130BDC4F10C04C4F1200220FA37
:1003F00002F001FA04F340EA0300294630BD21FA75
:1004000004F0294630BD94F0000F83F4801306BF3A
:1004100081F480110134013D4EE77FEA645C18BF2E
:100420007FEA655C29D094EA050F08BF90EA020FC5
:1004300005D054EA000C04BF1946104630BD91EABD
:10044000030F1EBF0021002030BD5FEA545C05D1C0
:100450004000494128BF41F0004130BD14F58004FF
:100460003CBF01F5801130BD01F0004545F0FE4173
:1004700041F470014FF0000030BD7FEA645C1ABFA8
:10048000194610467FEA655C1CBF0B46024650EADF
:10049000013406BF52EA033591EA030F41F400210B
:1004A00030BD00BF90F0000F04BF0021704730B591
:1004B0004FF4806404F132044FF000054FF0000166
:1004C00050E700BF90F0000F04BF0021704730B527
:1004D0004FF4806404F1320410F0004548BF4042FC
:1004E0004FF000013EE700BF42004FEAE2014FEA51
:1004F00031014FEA02701FBF12F07F4393F07F4F2C
:1005000081F06051704732F07F4208BF704793F02E
:100510007F4F04BF41F40021704730B54FF4607441
:1005200001F0004521F000411CE700BF50EA010244
:1005300008BF704730B54FF000050AE050EA0102ED
:1005400008BF704730B511F0004502D5404261EB5D
:1005500041014FF4806404F132045FEA915C3FF49E
:10056000D8AE4FF003025FEADC0C18BF03325FEA3B
:10057000DC0C18BF033202EBDC02C2F1200300FAEC
:1005800003FC20FA02F001FA03FE40EA0E0021FA11
:1005900002F11444BDE600BF70B54FF0FF0C4CF4FF
:1005A000E06C1CEA11541DBF1CEA135594EA0C0FB1
:1005B00095EA0C0F00F0DEF82C4481EA030621EAEC
:1005C0004C5123EA4C5350EA013518BF52EA033527
:1005D00041F4801143F4801338D0A0FB02CE4FF0D9
:1005E0000005E1FB02E506F00042E0FB03E54FF009
:1005F0000006E1FB03569CF0000F18BF4EF0010E01
:10060000A4F1FF04B6F5007F64F5407404D25FEAFC
:100610004E0E6D4146EB060642EAC62141EA5551AF
:100620004FEAC52040EA5E504FEACE2EB4F1FD0CF1
:1006300088BFBCF5E06F1ED8BEF1004F08BF5FEA6F
:10064000500E50F1000041EB045170BD06F0004621
:1006500046EA010140EA020081EA0301B4EB5C04CE
:10066000C2BFD4EB0C0541EA045170BD41F48011C6
:100670004FF0000E013C00F3AB8014F1360FDEBFEB
:10068000002001F0004170BDC4F10004203C35DAC7
:100690000C341BDC04F11404C4F1200500FA05F34A
:1006A00020FA04F001FA05F240EA020001F00042EB
:1006B00021F0004110EBD37021FA04F642EB060161
:1006C0005EEA430E08BF20EAD37070BDC4F10C048B
:1006D000C4F1200500FA04F320FA05F001FA04F24F
:1006E00040EA020001F0004110EBD37041F100013B
:1006F0005EEA430E08BF20EAD37070BDC4F1200546
:1007000000FA05F24EEA020E20FA04F301FA05F2AD
:1007100043EA020321FA04F001F0004121FA04F255
:1007200020EA020000EBD3705EEA430E08BF20EA25
:10073000D37070BD94F0000F0FD101F0004640005F
:1007400041EB010111F4801F08BF013CF7D041EAE1
:10075000060195F0000F18BF704703F000465200E5
:1007600043EB030313F4801F08BF013DF7D043EAB6
:100770000603704794EA0C0F0CEA135518BF95EA6C
:100780000C0F0CD050EA410618BF52EA4306D1D1F3
:1007900081EA030101F000414FF0000070BD50EA12
:1007A000410606BF1046194652EA430619D094EA9C
:1007B0000C0F02D150EA013613D195EA0C0F05D186
:1007C00052EA03361CBF104619460AD181EA0301DA
:1007D00001F0004141F0FE4141F470014FF0000092
:1007E00070BD41F0FE4141F4780170BD70B54FF02D
:1007F000FF0C4CF4E06C1CEA11541DBF1CEA1355AD
:1008000094EA0C0F95EA0C0F00F0A7F8A4EB05048E
:1008100081EA030E52EA03354FEA013100F0888085
:100820004FEA03334FF0805545EA131343EA12634E
:100830004FEA022245EA111545EA10654FEA002603
:100840000EF000419D4208BF964244F1FD0404F5BC
:10085000407402D25B084FEA3202B61A65EB030518
:100860005B084FEA32024FF480104FF4002CB6EBD5
:10087000020E75EB030E22BFB61A754640EA0C0055
:100880005B084FEA3202B6EB020E75EB030E22BF95
:10089000B61A754640EA5C005B084FEA3202B6EBD6
:1008A000020E75EB030E22BFB61A754640EA9C0095
:1008B0005B084FEA3202B6EB020E75EB030E22BF65
:1008C000B61A754640EADC0055EA060E18D04FEA23
:1008D000051545EA16754FEA06164FEAC30343EAC3
:1008E00052734FEAC2025FEA1C1CC0D111F4801F90
:1008F0000BD141EA00014FF000004FF0004CB6E789
:1009000011F4801F04BF01430020B4F1FD0C88BF27
:10091000BCF5E06F3FF6AFAEB5EB030C04BFB6EB32
:10092000020C5FEA500C50F1000041EB045170BD25
:100930000EF0004E4EEA113114EB5C04C2BFD4EB52
:100940000C0541EA045170BD41F480114FF0000ED6
:10095000013C90E645EA060E8DE60CEA135594EA52
:100960000C0F08BF95EA0C0F3FF43BAF94EA0C0F55
:100970000AD150EA01347FF434AF95EA0C0F7FF4CA
:1009800025AF104619462CE795EA0C0F06D152EA1E
:1009900003353FF4FDAE1046194622E750EA410602
:1009A00018BF52EA43067FF4C5AE50EA41047FF413
:1009B0000DAF52EA43057FF4EBAE12E74FF0FF3C78
:1009C00006E000BF4FF0010C02E000BF4FF0010C49
:1009D0004DF804CD4FEA410C7FEA6C5C4FEA430CC2
:1009E00018BF7FEA6C5C1BD001B050EA410C0CBF11
:1009F00052EA430C91EA030F02BF90EA020F002073
:100A0000704710F1000F91EA030F58BF994208BFD9
:100A100090422CBFD8176FEAE37040F00100704796
:100A20004FEA410C7FEA6C5C02D150EA013C07D1ED
:100A30004FEA430C7FEA6C5CD6D152EA033CD3D038
:100A40005DF8040B704700BF8446104662468C4632
:100A50001946634600E000BF01B5FFF7B7FF002865
:100A600048BF10F1000F01BD4DF808EDFFF7F4FF8E
:100A70000CBF012000205DF808FB00BF4DF808ED19
:100A8000FFF7EAFF34BF012000205DF808FB00BF3C
:100A90004DF808EDFFF7E0FF94BF012000205DF85E
:100AA00008FB00BF4DF808EDFFF7CEFF94BF012013
:100AB00000205DF808FB00BF4DF808EDFFF7C4FF0C
:100AC00034BF012000205DF808FB00BF4A0011D2AE
:100AD00012F5001211D20DD56FF47873B3EB625298
:100AE0000ED44FEAC12343F0004343EA505323FAA4
:100AF00002F070474FF00000704750EA013002D119
:100B00004FF0FF3070474FF00000704753B94AB9BB
:100B1000002908BF00281CBF4FF0FF314FF0FF3005
:100B200000F072B9ADF1080C6DE904CE00F006F8E2
:100B3000DDF804E0DDE9022304B070472DE9F04759
:100B4000089E04468846002B4BD18A42154667D939
:100B5000B2FA82F24AB1C2F1200701FA02F320FA96
:100B600007F7954047EA030894404FEA154E230CD7
:100B7000B8FBFEF71FFA85FC0EFB178843EA084313
:100B800007FB0CF1994209D9EB1807F1FF3080F00F
:100B90001B81994240F21881023F2B445B1AA4B298
:100BA000B3FBFEF00EFB103344EA034400FB0CFCE5
:100BB000A44509D92C1900F1FF3380F00781A44521
:100BC00040F2048102382C4440EA0740A4EB0C04B4
:100BD00000271EB1D4400023C6E900433946BDE8D2
:100BE000F0878B4209D9002E00F0EB800027C6E980
:100BF000000138463946BDE8F087B3FA83F7002F85
:100C000047D18B4202D3824200F2FA80841A61EB10
:100C1000030301209846002EE0D0C6E90048DDE736
:100C200002B9FFDEB2FA82F2002A40F08F80491B3F
:100C30004FEA154E1FFA85F80127B1FBFEFC230C85
:100C40000EFB1C1143EA014308FB0CF1994207D942
:100C5000EB180CF1FF3002D2994200F2CD808446AD
:100C6000591AA3B2B1FBFEF00EFB101443EA044480
:100C700008FB00F8A04507D92C1900F1FF3302D278
:100C8000A04500F2B6801846A4EB080440EA0C40E8
:100C90009FE7C7F1200CBB4022FA0CFE4EEA030E80
:100CA00001FA07F420FA0CF521FA0CF34FEA1E487A
:100CB0002543B3FBF8F92C0C08FB19331FFA8EFA05
:100CC00044EA034309FB0AF49C4202FA07F200FAE1
:100CD00007F10BD91EEB030309F1FF3080F0878089
:100CE0009C4240F28480A9F1020973441B1BADB2FF
:100CF000B3FBF8F008FB103345EA034400FB0AFAA3
:100D0000A24508D91EEB040400F1FF336BD2A245C3
:100D100069D90238744440EA0940A0FB0289A4EB77
:100D20000A044C45C2464B4654D351D0002E69D0DC
:100D3000B1EB0A0564EB030404FA0CFCFD40FC4033
:100D40004CEA0505C6E90054002747E7C2F1200335
:100D500020FA03F7954001FA02F021FA03F34FEA73
:100D6000154E3843010CB3FBFEF71FFA85F80EFB56
:100D7000173341EA034107FB08F38B4204FA02F4FC
:100D800007D9691807F1FF3C2FD28B422DD9023FBA
:100D90002944CB1A81B2B3FBFEF00EFB103341EABB
:100DA000034100FB08F38B4207D9691800F1FF3CAF
:100DB00017D28B4215D902382944C91A40EA07478D
:100DC0003BE73746304609E70746E7E61846FBE6C5
:100DD0004145ABD2B8EB020A69EB0E02013813466B
:100DE000A4E76046E9E7184695E76746D1E78146FC
:100DF0007CE702382C4447E7ACF1020C2B442FE788
:100E0000384608E73746E9E6704700BF08B50320D3
:100E100000F08CFA002002F027FF02F085FE00208F
:100E200008BD0000034A1168034B1B780B44136094
:100E3000704700BF783D002000000020014B18687B
:100E4000704700BF783D0020494B5A6822F4403279
:100E50005A605A6841680A435A600268536823F42A
:100E60008073536002685368016943EA0123536049
:100E70000268536823F040735360026853688168C6
:100E80000B4353600268936823F400639360026825
:100E90009368C1680B439360826A364B9A4249D08B
:100EA0000268936823F07063936002689368816AB4
:100EB0000B4393600268936823F040539360026889
:100EC0009368C16A0B4393600268936823F002033E
:100ED000936002689368816943EA41039360036AFF
:100EE000002B32D10268536823F400635360026818
:100EF000D36A23F47003D3620168CB6AC269013AF2
:100F000043EA0253CB620268936823F40073936050
:100F100002689368016B43EA412393600268936817
:100F200023F48063936002689368416943EA8123F4
:100F3000936070470268936823F07063936002685F
:100F4000936823F040539360BEE70268536843F40C
:100F5000006353600268536823F460435360016880
:100F60004B68426A013A43EA42334B60BFE700BF35
:100F7000002301400100000F20B310B50446036CAC
:100F800043B1236C13F0100F0AD00120002384F822
:100F90003C3010BD436480F83C3002F00DFEF0E7B9
:100FA000226C094B134043F0020323642046FFF7F1
:100FB0004BFF00206064236C23F0030343F0010324
:100FC0002364E3E701207047FDEEFFFF82B00023BA
:100FD000019390F83C30012B61D0012380F83C3024
:100FE00003689A6812F0010F13D19A6842F0010267
:100FF0009A602F4B1B682F4AA2FB03239B0C03EB29
:101000004303019302E0019B013B0193019B002BF1
:10101000F9D10268936813F0010F42D0016C264B9E
:101020000B4043F480730364536813F4806F05D05E
:10103000036C23F4405343F480530364036C13F4B0
:10104000805F19D0436C23F006034364002380F8CB
:101050003C306FF022031360184B5B6813F01F0FD6
:101060000DD103689A6812F0405F1DD19A6842F072
:1010700080429A60002015E000234364E6E703689D
:101080000F4A934201D000200CE09A6812F0405FB2
:101090000CD19A6842F080429A60002002E002205F
:1010A00000E0002002B070470020FBE70020F9E7D5
:1010B0000C00002083DE1B43FEF8FFFF00230140ED
:1010C0000020014003689A6812F4806F03D09B6887
:1010D00013F4807F1CD170B50D460446FFF7AEFEB9
:1010E000064623681A6812F0020F1AD1B5F1FF3FC5
:1010F000F7D025B1FFF7A2FE801BA842F1D9236CDF
:1011000043F004032364002384F83C3003202DE0E3
:10111000036C43F020030364002380F83C3001207B
:1011200070476FF012021A60236C43F4007323645B
:1011300023689A6812F0405F17D1A269BAB9DA6AD7
:1011400012F4700F03D09B6813F4806F11D1236CDD
:1011500023F480732364236C13F4805F0BD1236C1E
:1011600043F001032364002000E0002070BD002054
:10117000FCE70020FAE70020F8E70368D86C704726
:1011800030B482B00023019390F83C30012B00F082
:10119000C080012380F83C300B68092B22D90568F8
:1011A000EA689BB203EB43031E3B072404FA03F3F4
:1011B00022EA0303EB600B68574A93420BD00568A1
:1011C000EA688C689BB203EB43031E3B04FA03F30B
:1011D0001343EB601BE00268D3688C6843EA046346
:1011E000D36014E005682A699BB203EB430307242C
:1011F00004FA03F322EA03032B6105682A698C6869
:101200000B8803EB430304FA03F313432B614B688E
:10121000062B24D805686A6B03EB8303053B1F2468
:1012200004FA03F322EA03036B6305686A6B4B68F5
:1012300003EB8303053B0C8804FA03F313436B634E
:101240000268364B9A423AD00268344B9A423FD0F9
:10125000002380F83C30184602B030BC70470C2B9D
:1012600016D805682A6B03EB8303233B1F2404FA7B
:1012700003F322EA03032B6305682A6B4B6803EB35
:101280008303233B0C8804FA03F313432B63D7E750
:101290000568EA6A03EB8303413B1F2404FA03F366
:1012A00022EA0303EB620568EA6A4B6803EB8303F7
:1012B000413B0C8804FA03F31343EB62C0E70B686D
:1012C000122BC1D1164A536843F480035360BBE725
:1012D0000B68114A112B18BF9342B9D1104A5368B9
:1012E00043F4000353600A680B4B9A42B0D10D4B94
:1012F0001B680D4AA2FB03239B0C03EB83035A00DC
:10130000019202E0019B013B0193019B002BF9D16B
:101310009EE70220A0E700BF12000010002001405D
:10132000002301400C00002083DE1B430649CB68EC
:1013300023F4E0631B041B0C000200F4E060034391
:10134000024A1A43CA60704700ED00E00000FA0547
:1013500030B4154BDB68C3F30223C3F10704042C3C
:1013600028BF04241D1D062D14D9033B4FF0FF3563
:1013700005FA04F421EA0401994005FA03F322EA8C
:1013800003031943002807DB0901C9B2074B1954AD
:1013900030BC70470023E9E700F00F000901C9B233
:1013A000034B1954F4E700BF00ED00E000E400E057
:1013B00014ED00E000F01F02400901239340024AAF
:1013C00042F82030704700BF00E100E00138B0F182
:1013D000807F0AD2064B5860064AF02182F823101B
:1013E0000020986007221A6070470120704700BFF4
:1013F00010E000E000ED00E0042805D0054A136885
:1014000023F0040313607047024A136843F0040397
:101410001360704710E000E000230F2B00F2D6802D
:10142000F0B482B039E0072200E00022B2403A4333
:101430000234674E46F82420664A1468EA4302EAFA
:1014400004064F6817F4803F01D045EA0406614C5A
:101450002660646802EA04064F6817F4003F01D072
:1014600045EA04065B4C6660A46802EA04064F681D
:1014700017F4801F01D045EA0406564CA660E468C4
:1014800022404E6816F4001F01D045EA0402514C78
:10149000E26001330F2B00F2968001229A400C6823
:1014A00004EA0205AA42F4D14C68122C18BF022C9F
:1014B00010D1DE08083650F826C003F00704A70054
:1014C0000F24BC402CEA040C0C69BC4044EA0C0418
:1014D00040F8264004685F000326BE40F64306EA53
:1014E000040C4C6804F00304BC4044EA0C0404609F
:1014F0004C6804F1FF3C112C18BFBCF1010F01D95D
:10150000122C11D1846806EA040CCC68BC4044EA71
:101510000C048460446824EA020C4C68C4F3001292
:101520009A4042EA0C024260C26816408A68BA4099
:101530003243C2604A6812F0805FAAD0264A546CD7
:1015400044F480445464526C02F480420192019A43
:101550009C08A61C1E4A52F8267003F0030296004F
:101560000F22B24027EA02071C4A90423FF45DAFC7
:1015700002F5806290421AD002F58062904218D043
:1015800002F58062904216D002F58062904214D03B
:1015900002F58062904212D002F58062904210D033
:1015A00002F5806290423FF43EAF08223EE70122FE
:1015B0003CE702223AE7032238E7042236E7052215
:1015C00034E7062232E702B0F0BC7047704700BF34
:1015D00000380140003C0140003802400000024059
:1015E00012B90904816170478161704710B582B0FA
:1015F0001B4B1A6C42F080521A641B6C03F0805330
:101600000193019B174A136843F480331360FFF77B
:1016100015FC0446134B5B6813F4803F08D1FFF7B9
:101620000DFC001BB0F57A7FF4D9032002B010BD89
:101630000C4A136843F400331360FFF7FFFB0446C2
:10164000084B5B6813F4003F07D1FFF7F7FB001B63
:10165000B0F57A7FF4D90320E8E70020E6E700BF81
:101660000038024000700040002800F0DB8170B5B7
:1016700082B00446036813F0010F29D0A24B9B6887
:1016800003F00C03042B1AD09F4B9B6803F00C0350
:10169000082B0FD06368B3F5803F40D0002B54D1A6
:1016A000994B1A6822F480321A601A6822F4802258
:1016B0001A6039E0944B5B6813F4800FEAD0924BC8
:1016C0001B6813F4003F03D06368002B00F0AC816B
:1016D000236813F0020F75D08B4B9B6813F00C0F2F
:1016E0005ED0894B9B6803F00C03082B53D0E36852
:1016F000002B00F08A80844A136843F001031360D2
:10170000FFF79CFB0546804B1B6813F0020F73D15B
:10171000FFF794FB401B0228F5D9032087E17A4AA2
:10172000136843F48033136063682BB3FFF786FBC1
:101730000546754B1B6813F4003FC9D1FFF77EFBCC
:10174000401B6428F5D9032071E1B3F5A02F09D01F
:101750006D4B1A6822F480321A601A6822F48022D3
:101760001A60E1E7684B1A6842F480221A601A682E
:1017700042F480321A60D7E7FFF760FB0546624B00
:101780001B6813F4003FA3D0FFF758FB401B6428ED
:10179000F5D903204BE15C4B5B6813F4800FA6D1B5
:1017A000594B1B6813F0020F04D0E368012B01D0E2
:1017B00001203CE1544A136823F0F803216943EA0D
:1017C000C1031360236813F0080F46D0636983B325
:1017D0004D4A536F43F001035367FFF72FFB054654
:1017E000494B5B6F13F0020F37D1FFF727FB401B0C
:1017F0000228F5D903201AE1434A136823F0F803BD
:10180000216943EAC1031360DCE73F4A136823F010
:1018100001031360FFF712FB05463B4B1B6813F0F7
:10182000020FCFD0FFF70AFB401B0228F5D9032097
:10183000FDE0354A536F23F001035367FFF7FEFACB
:101840000546314B5B6F13F0020F06D0FFF7F6FA37
:10185000401B0228F5D90320E9E0236813F0040FA8
:101860007ED0294B1B6C13F0805F1ED1264B1A6C67
:1018700042F080521A641B6C03F080530193019B69
:101880000125224B1B6813F4807F10D0A368012B25
:1018900021D0002B3CD11C4B1A6F22F001021A6799
:1018A0001A6F22F004021A671AE00025E9E7174AC6
:1018B000136843F480731360FFF7C0FA0646134BB6
:1018C0001B6813F4807FE1D1FFF7B8FA801B64280E
:1018D000F5D90320ABE00C4A136F43F00103136703
:1018E000A3685BB3FFF7AAFA0646074B1B6F13F01A
:1018F000020F34D1FFF7A2FA801B41F288339842DD
:10190000F3D9032093E000BF00380240007000408C
:10191000052B09D0484B1A6F22F001021A671A6F83
:1019200022F004021A67DBE7434B1A6F42F004020D
:101930001A671A6F42F001021A67D1E7FFF77EFAC1
:1019400006463D4B1B6F13F0020F08D0FFF776FAE7
:10195000801B41F288339842F3D9032067E0F5B940
:10196000A369002B62D0344A926802F00C02082A64
:101970005FD0022B19D0304A136823F080731360B4
:10198000FFF75CFA04462C4B1B6813F0007F47D02E
:10199000FFF754FA001B0228F5D9032047E0264A36
:1019A000136C23F080531364DAE7234A136823F09F
:1019B00080731360FFF742FA05461F4B1B6813F054
:1019C000007F06D0FFF73AFA401B0228F5D9032022
:1019D0002DE0E369226A1343626A43EA8213A26A32
:1019E0005208013A43EA0243E26A43EA026343F0DF
:1019F0000053114A5360136843F080731360FFF77C
:101A00001DFA04460C4B1B6813F0007F06D1FFF74C
:101A100015FA001B0228F5D9032008E0002006E093
:101A2000002004E001207047012000E0002002B007
:101A300070BD0120FBE700BF00380240304B9B68BF
:101A400003F00C03082B58D12DE9F04B2C4B5A68AE
:101A500002F03F025B6813F4800F2BD0284B5B68C9
:101A6000C3F388131E4600275C010025E41A65EBCA
:101A70000705A90141EA9461A001001B61EB050182
:101A8000CB0043EA5073C400A01943EB07018B025B
:101A900043EA90538402204619460023FFF736F8A4
:101AA000174B5B68C3F3014301335B00B0FBF3F0FA
:101AB000BDE8F08B124B5B68C3F388131E4600270A
:101AC0005C010025E41A65EB0705A90141EA946170
:101AD000A001001B61EB0501CB0043EA5073C40079
:101AE000A01943EB07018B0243EA9053840220467E
:101AF00019460023FFF70AF8D2E70248704700BFF3
:101B0000003802400024F400002800F0A28070B5E4
:101B10000446524B1B6803F00F038B420CD24F4A12
:101B2000136823F00F030B431360136803F00F03D4
:101B30008B4201D0012070BD236813F0020F17D033
:101B400013F0040F04D0464A936843F4E0539360C3
:101B5000236813F0080F04D0414A936843F46043AC
:101B600093603F4A936823F0F003A06803439360B7
:101B70000D46236813F0010F31D06368012B20D08C
:101B8000022B25D0364A126812F0020F63D0344976
:101B90008A6822F0030213438B60FFF74FF9064671
:101BA0002F4B9B6803F00C036268B3EB820F16D0D7
:101BB000FFF744F9801B41F288339842F0D90320A3
:101BC000B9E7274A126812F4003FE0D10120B2E7DA
:101BD000234A126812F0007FD9D10120ABE71F4BD6
:101BE0001B6803F00F03AB420CD91C4A136823F0A7
:101BF0000F032B431360136803F00F03AB4201D0B4
:101C0000012098E7236813F0040F06D0144A936864
:101C100023F4E053E1680B439360236813F0080F4B
:101C200007D00F4A936823F46043216943EAC10354
:101C30009360FFF703FF0A4B9B68C3F30313094A42
:101C4000D35CD840084B1860002002F00DF800204B
:101C500071E70120704701206DE700BF003C0240A2
:101C6000003802402C3E00080C000020014B186890
:101C7000704700BF0C00002008B5FFF7F7FF044BCA
:101C80009B68C3F34233034AD35CD84008BD00BF0E
:101C9000003802403C3E00080F2303600B4B9A685B
:101CA00002F0030242609A6802F0F00282609A68D1
:101CB00002F4E052C2609B68DB0803F4E053036166
:101CC000034B1B6803F00F030B60704700380240A2
:101CD000003C0240F0B583B00446036813F0010FE6
:101CE0000CD0A44B9A6822F400029A609A68C16AE8
:101CF0000A439A60C36AC3B1002600E00026236845
:101D000013F4002F15D09B4AD2F88C3023F44013E3
:101D1000616B0B43C2F88C30636BB3F5801F06D048
:101D2000002B00F00581002504E00126E7E70126ED
:101D3000F6E70025236813F4801F0FD08D4AD2F8F0
:101D40008C3023F44003A16B0B43C2F88C30A36B9F
:101D5000B3F5800F00F0EE8003B90125236813F07E
:101D6000200F40F0E980236813F0100F0CD0814B56
:101D7000D3F88C2022F08072C3F88C20D3F88C200A
:101D8000216B0A43C3F88C20236813F4804F08D0DA
:101D9000784AD2F8903023F44033E16D0B43C2F817
:101DA0009030236813F4004F08D0724AD2F8903074
:101DB00023F44023216E0B43C2F89030236813F4C0
:101DC000803F08D06B4AD2F8903023F44013616E04
:101DD0000B43C2F89030236813F0400F08D0654AD7
:101DE000D2F8903023F00303E16B0B43C2F890303C
:101DF000236813F0800F08D05E4AD2F8903023F0A9
:101E00000C03216C0B43C2F89030236813F4807FDD
:101E100008D0584AD2F8903023F03003616C0B435D
:101E2000C2F89030236813F4007F08D0514AD2F8EA
:101E3000903023F0C003A16C0B43C2F890302368AC
:101E400013F4806F08D04B4AD2F8903023F44073DB
:101E5000E16C0B43C2F89030236813F4006F08D094
:101E6000444AD2F8903023F44063216D0B43C2F80A
:101E70009030236813F4805F08D03E4AD2F8903047
:101E800023F44053616D0B43C2F89030236813F480
:101E9000005F08D0374AD2F8903023F44043A16D58
:101EA0000B43C2F89030236813F4001F0DD0314A61
:101EB000D2F8903023F00063616F0B43C2F890308A
:101EC000636FB3F1006F00F0A180236813F4802FDB
:101ED00008D0284AD2F8903023F04073E16E0B43CB
:101EE000C2F89030236813F4000F08D0214AD2F8CA
:101EF000903023F08053A16F0B43C2F890302368D9
:101F000013F0806F08D01B4AD2F8903023F00053B2
:101F1000E16F0B43C2F89030002E79D12368B3F102
:101F2000007F75D0002D40F0E380002003B0F0BDAD
:101F30000125FFE601260FE70E4B1A6C42F0805296
:101F40001A641B6C03F080530193019B0A4A1368C7
:101F500043F480731360FEF771FF0746064B1B685E
:101F600013F4807F0AD1FEF769FFC01B6428F5D9FE
:101F70000320DBE700380240007000408D4B1B6FF0
:101F800013F4407315D0A26A02F440729A4210D042
:101F9000884B1A6F22F44072196F41F4803119672F
:101FA000196F21F4803119671A671B6F13F0010F45
:101FB00012D1A36A03F44072B2F5407F1DD07D4A6E
:101FC000936823F4F81393607A490B6FA26AC2F303
:101FD0000B0213430B67C6E6FEF730FF0746754B4F
:101FE0001B6F13F0020FE4D1FEF728FFC01B41F274
:101FF00088339842F3D9032098E76E48826822F428
:10200000F8126D4919400A438260DDE701255CE75B
:10201000684A136823F080631360FEF70FFF0646DB
:10202000644B1B6813F0006F06D0FEF707FF801BA0
:102030006428F5D9032079E7236813F0010F0ED047
:10204000E36A63B95B4AD2F88430616803F0706375
:1020500043EA8113A16843EA0173C2F8843023681C
:1020600013F4002F03D0626BB2F5801F06D013F477
:10207000801F19D0A36BB3F5800F15D14D4AD2F84C
:1020800084106068E3681B0643EA801301F0E041B6
:102090000B43C2F88430D2F88C3023F01F03E1697F
:1020A00001390B43C2F88C30236813F0007F0AD04B
:1020B0006268E3681B0643EA8213A26843EA02737C
:1020C0003C4AC2F884303B4A136843F08063136093
:1020D000FEF7B4FE0646374B1B6813F0006F7FF423
:1020E00021AFFEF7ABFE801B6428F4D903201DE767
:1020F000304A136823F080531360FEF79FFE0546B5
:102100002C4B1B6813F0005F06D0FEF797FE401BB8
:102110006428F5D9032009E7236813F4002F01D0C0
:10212000626B22B113F4801F18D0A36BB3B9214A9C
:10213000D2F88830216903F4403343EA811361699E
:1021400043EA0163C2F88830D2F88C3023F4F853A4
:10215000216A013943EA0123C2F88C30236813F461
:10216000001F03D0636FB3F1006F13D0114A1368DF
:1021700043F080531360FEF761FE04460D4B1B686D
:1021800013F0005F14D1FEF759FE001B6428F5D947
:102190000320CBE60749D1F888202069A3691B04F6
:1021A00043EA801302F070621343C1F88830DDE720
:1021B0000020BBE600380240FFFCFF0F70470268BA
:1021C000D36843F00103D3600268136843F001034E
:1021D000136000207047704770477047704710B514
:1021E000044603681A6912F0020F11D0DA6812F07F
:1021F000020F0DD06FF002021A610123037703680A
:102200009B6913F0030F79D0FFF7E6FF00232377D4
:1022100023681A6912F0040F12D0DA6812F0040F62
:102220000ED06FF004021A610223237723689B69A2
:1022300013F4407F68D02046FFF7CEFF00232377BA
:1022400023681A6912F0080F12D0DA6812F0080F2A
:102250000ED06FF008021A61042323772368DB692C
:1022600013F0030F57D02046FFF7B6FF0023237764
:1022700023681A6912F0100F12D0DA6812F0100FEA
:102280000ED06FF010021A61082323772368DB69F0
:1022900013F4407F46D02046FFF79EFF00232377AC
:1022A00023681A6912F0010F03D0DA6812F0010FE7
:1022B0003FD123681A6912F0800F03D0DA6812F058
:1022C000800F3DD123681A6912F4807F03D0DA6849
:1022D00012F0800F3BD123681A6912F0400F03D02F
:1022E000DA6812F0400F39D123681A6912F0200F12
:1022F00003D0DA6812F0200F37D110BDFFF76BFF63
:102300002046FFF76AFF81E72046FFF764FF20467B
:10231000FFF763FF92E72046FFF75DFF2046FFF7D8
:102320005CFFA3E72046FFF756FF2046FFF755FF67
:10233000B4E76FF001021A61204601F009FAB8E72C
:102340006FF080021A61204600F0B6F8BAE76FF02D
:1023500080021A61204600F0AFF8BCE76FF040023F
:102360001A612046FFF73AFFBEE76FF020021A61BC
:10237000204600F0A0F8C0E770B403683A4CA042D1
:1023800014BF00240124B0F1804F14BF224644F052
:102390000102AAB9354DA84214BF00250125344ECB
:1023A000B0420DD065B905F1804505F58235A842EA
:1023B00014BF0025012506F50066B04200D01DB10E
:1023C00023F070034D682B43002A33D1274A9042F3
:1023D00014BF00220122264DA8422BD052BB02F18D
:1023E000804202F58232904214BF0022012205F59C
:1023F0000065A8421ED0EAB91E4A904214BF0022CE
:10240000012205F59A35A84214D09AB91A4A904289
:1024100014BF0022012205F50065A8420AD04AB97E
:10242000164A904214BF00220122A5F59635A84213
:1024300000D01AB123F44073CA68134323F0800319
:102440004A69134303608A68C2620A6882620C4B5D
:10245000984214BF234644F001030BB10B69036398
:102460000123436170BC7047000001400008004038
:1024700000040040004401400018004000200040DB
:1024800000040140A8B110B5044690F83D305BB19E
:10249000022384F83D30211D2068FFF76DFF0123E2
:1024A00084F83D30002010BD80F83C30FFF786FEF8
:1024B000EEE70120704770477047842801D0033051
:1024C00070470020704708B500F0CCF9002008BD27
:1024D000F0B585B00F46446805680669B0F9080094
:1024E000FFF7EBFF03AB019300903B46B2B22946E6
:1024F000204600F085F9012802D1039805B0F0BD0F
:102500000020FBE708B5034600B90123184600F098
:10251000F3FA002008BD08B500F09EFB012801D0A9
:1025200000F080FC08BD00F1080343604FF0FF326B
:102530008260C3600361002303607047002303616E
:10254000704743684B609A688A609A6851609960E6
:102550000861036801330360704730B40D68B5F15A
:10256000FF3F02D000F1080202E0026904E01A46CF
:1025700053681C68AC42FAD953684B6099608A6012
:102580005160086103680133036030BC7047036920
:102590004268816891608268416851605A688242ED
:1025A00005D00022026118680138186070478268FF
:1025B0005A60F6E7074B9B6A1B6833B1054B9A6A72
:1025C000D268D2685268DA627047024B4FF0FF322D
:1025D000DA6270472C00002010B50446006B00F052
:1025E00071FD204600F06EFD10BD2DE9F0478046DC
:1025F0009946089D099F0A9C266B6FF0404313443F
:1026000006EB830626F0070600230F2B07D8C85CCD
:10261000E21882F83400CA5C0AB10133F5E70023FE
:1026200084F84330062D00D90625E56265644FF035
:10263000000AC4F848A0201DFFF780FF04F118002D
:10264000FFF77CFF2461C5F10705A5616462C4F84A
:102650004CA084F850A04A464146304600F044FB66
:10266000206007B13C60BDE8F087000070B5002431
:1026700007E004EB8402930010481844FFF753FF6F
:102680000134062CF5D90E4C04F1BC063046FFF798
:102690004AFF04F1D0052846FFF745FF04F1140076
:1026A000FFF741FF04F1E400FFF73DFF2046FFF78D
:1026B0003AFFA662C4F8F85070BD00BF5C0000206D
:1026C0002C00002038B5054600F03CFB264BD3F823
:1026D000FC200132C3F8FC20D3F8003173B1224B47
:1026E000D3F804318BB9204BD3F80031DA6AEB6AA6
:1026F0009A420AD81C4BC3F8005106E01A4BC3F8A3
:102700000051D3F8FC30012B2AD0174CD4F80831F3
:102710000133C4F80831EB6A01229A40D4F80C1155
:102720000A43C4F80C2104F1300003EB83039A0040
:10273000291D1044FFF705FF00F02AFBD4F80431EF
:102740006BB1D4F80031DA6AEB6A9A4207D2074BD0
:102750004FF080521A60BFF34F8FBFF36F8F38BDB9
:10276000FFF784FFD1E700BF2C00002004ED00E05C
:1027700070B504460E46214BD3F81051D3F8000132
:102780000430FFF704FF60B91C4BD3F80021D16A75
:10279000012202FA01F1D3F80C2122EA0102C3F866
:1027A0000C21B4F1FF3F14BF00230123002E08BF0A
:1027B000002393B92C44114BD3F800315C60A5423F
:1027C00012D80E4DA86AD5F800110431FFF7C5FEE6
:1027D000EB6AA34210D9EC620EE00848D0F8001171
:1027E0000431FFF7AEFE07E0044BD3F8F800D3F84E
:1027F00000110431FFF7B1FE70BD00BF2C000020B6
:102800002DE9F04385B00746884615469946900065
:1028100000F0D8FBF8B10646542000F0D3FB044684
:10282000A8B10663D4B10023039302940D9B0193D6
:102830000C9B00934B462A4641463846FFF7D5FE8F
:102840002046FFF73FFF012005B0BDE8F08330468A
:1028500000F038FCE6E74FF0FF30F5E74FF0FF30CF
:10286000F2E7000000B583B0194B019300230093F9
:10287000802218491848FFF7C3FF012805D0B0F19E
:10288000FF3F19D003B05DF804FB4FF0500372B660
:1028900083F31188BFF36F8FBFF34F8F62B60F4B77
:1028A0004FF0FF32DA620122C3F804210022C3F89C
:1028B000102100F0E5FAE5E74FF0500372B683F31C
:1028C0001188BFF36F8FBFF34F8F62B6FEE700BF73
:1028D00048010020443E00089D2B00082C000020E9
:1028E000034AD2F818310133C2F81831704700BFDB
:1028F0002C0000202DE9F041414BD3F81831002B7A
:102900006ED13F4BD3F810510135C3F81051DDB9EA
:102910009B6A1B6853B14FF0500372B683F3118862
:10292000BFF36F8FBFF34F8F62B6FEE7344B9A6AE7
:10293000D3F8F8109962C3F8F820D3F820210132B7
:10294000C3F82021FFF736FE2D4BDB6AAB423DD9A1
:1029500000242B4AD2F80031DB6A03EB8303990091
:102960000A44136B012B42D9012440E00124244B7B
:102970009B6A1B6863B3224B9B6ADB68DE687368E3
:102980009D422AD306F104084046FFF700FEB36AD1
:102990001BB106F11800FFF7FAFDF36A01229A4015
:1029A000174FD7F80C110A43C7F80C2107F1300074
:1029B00003EB83039A0041461044FFF7C2FDF26A1D
:1029C000D7F80031DB6A9A42D0D2D0E70024CEE7B4
:1029D0000B4B4FF0FF32DA62BBE7094AD362B8E72C
:1029E000074AD2F824310133C2F824310024044BC1
:1029F000D3F8283103B101242046BDE8F08100BF9F
:102A00002C0000203A4BD3F8183153B94FF0500343
:102A100072B683F31188BFF36F8FBFF34F8F62B627
:102A2000FEE770B500F08EF9314BD3F81821013A6A
:102A3000C3F81821D3F81831002B54D12C4BD3F8FC
:102A4000FC3023B9002400F0A3F9204670BD002417
:102A5000274B5B692BB3264D2B6ADC6804F1180009
:102A6000FFF795FD261D3046FFF791FDE36A012231
:102A70009A40D5F80C110A43C5F80C2105F1300035
:102A800003EB83039A0031461044FFF75AFDE26AD4
:102A9000D5F80031DB6A9A42DAD30122C5F8282141
:102AA000D6E70CB1FFF786FD114BD3F8244164B192
:102AB000FFF720FF18B10E4B0122C3F82821013C7B
:102AC000F6D10B4B0022C3F82421094BD3F828314F
:102AD0005BB1084B4FF080521A60BFF34F8FBFF3CA
:102AE0006F8F0124AFE70024ADE70024ABE700BF00
:102AF0002C00002004ED00E010B5C0B10446104BDE
:102B0000D3F8183153B14FF0500372B683F31188E4
:102B1000BFF36F8FBFF34F8F62B6FEE7FFF7E0FEA4
:102B200000212046FFF724FEFFF76CFF38B9054B64
:102B30004FF080521A60BFF34F8FBFF36F8F10BDFD
:102B40002C00002004ED00E038B5134BD3F814310D
:102B50000BB3FFF7C5FE104BD3F8E440FFF752FF6D
:102B6000002CF2D000F0EEF80B4CD4F8F030DD6819
:102B7000281DFFF70CFDD4F8FC30013BC4F8FC30F5
:102B8000D4F81431013BC4F8143100F001F928469F
:102B9000FFF722FDD9E738BD2C00002008B5FFF76C
:102BA000D3FF064B1B6B012BF9D9054B4FF080521D
:102BB0001A60BFF34F8FBFF36F8FF0E72C00002038
:102BC00004ED00E0234BD3F8183123B1214B01224F
:102BD000C3F8282170471F4A0023C2F82831D2F8D1
:102BE0000C31B3FA83F3DBB2C3F11F0303EB8300B1
:102BF00081000A44126B52B94FF0500372B683F34E
:102C00001188BFF36F8FBFF34F8F62B6FEE710B42A
:102C1000104A9900CC18A0001044446B64684463C7
:102C20003032194488000830024494420BD00949DC
:102C300003EB83039A000A44536BDB68C1F800314D
:102C40005DF8044B704761680248142202FB0302DE
:102C50005163ECE72C000020064BD3F804313BB164
:102C6000044BD3F818310BB1002070470220704795
:102C7000012070472C0000200D4B1B68B3F1FF3F73
:102C80000AD04FF0500372B683F31188BFF36F8FF1
:102C9000BFF34F8F62B6FEE74FF0500372B683F377
:102CA0001188BFF36F8FBFF34F8F62B6FEE700BF8F
:102CB0000800002006480068006880F3088862B6B3
:102CC00061B6BFF34F8FBFF36F8F00DF00BF00000F
:102CD00008ED00E0DFF80C00016841F470010160CC
:102CE0007047000088ED00E04FF0807340F8043C2E
:102CF00021F0010140F8081C054B40F80C3C40F85D
:102D0000202C6FF0020340F8243C4438704700BF89
:102D1000792C000800000000000000000000000006
:102D2000074B19680868B0E8F04F80F30988BFF3D3
:102D30006F8F4FF0000080F311887047AFF3008071
:102D40002C0100204FF0500372B683F31188BFF3BB
:102D50006F8FBFF34F8F62B60B4A13680133136056
:102D6000012B00D07047094B1B6813F0FF0FF9D0FF
:102D70004FF0500372B683F31188BFF36F8FBFF328
:102D80004F8F62B6FEE700BF0800002004ED00E0B0
:102D90000A4B1B6853B94FF0500372B683F3118886
:102DA000BFF36F8FBFF34F8F62B6FEE7013B034A5D
:102DB00013600BB983F31188704700BF080000202F
:102DC000EFF30980BFF36F8F154B1A681EF0100FD9
:102DD00008BF20ED108A20E9F04F10604DF8043D47
:102DE0004FF0500072B680F31188BFF34F8FBFF3DE
:102DF0006F8F62B6FFF7E6FE4FF0000080F3118898
:102E000008BC19680868B0E8F04F1EF0100F08BF42
:102E1000B0EC108A80F30988BFF36F8F704700BF52
:102E20002C01002008B54FF0500372B683F31188CF
:102E3000BFF36F8FBFF34F8F62B6FFF75BFD18B123
:102E4000034B4FF080521A60002383F3118808BDB2
:102E500004ED00E0064B1B68064AA2FB03239B0916
:102E6000013B054A1360054B07221A60704700BFFB
:102E70000C000020D34D621014E000E010E000E0F0
:102E800000B583B0224B1A78D2B20192FF221A7099
:102E90001B78DBB28DF803309DF8033003F050034C
:102EA0001C4A13700723536009E01A4A5368013B18
:102EB00053609DF803305B00DBB28DF803309DF862
:102EC000033013F0800FF0D1124A53681B0203F451
:102ED000E0635360019BDBB20D4A13700E4B1A681E
:102EE00042F470021A601A6842F070421A60FFF7EA
:102EF000B1FF0A4B00221A60FFF7ECFE084A136884
:102F000043F040431360FFF7D5FEFFF7B5FE00BF67
:102F100000E400E05801002020ED00E0080000205F
:102F200034EF00E0104A12F0070F1AD0D11D21F043
:102F30000701C1F5705313440A460C490A6000208A
:102F400048601344083B23F007038B605860186007
:102F5000981A50601360C86008614FF000434B61DD
:102F600070474FF47053E8E77801002060010020BB
:102F700010B4134B1A6882421BD359685C18844200
:102F800003D1406801445960184641684418A24280
:102F900013D10B4CA468A2420DD052681144416079
:102FA0001A6812680260984200D018605DF8044BFD
:102FB00070471346DEE70460F5E70260F3E700BF01
:102FC0006001002070B50446FFF78AFC3C4B9B680B
:102FD000CBB13B4B5B691C4268D1BCB1083414F0E7
:102FE000070F13D024F00704083404F007036BB173
:102FF0004FF0500372B683F31188BFF36F8FBFF3A6
:103000004F8F62B6FEE7FFF78DFFE2E7002C4FD04F
:103010002B4B1B69A3424DD3294B1D6801E02B4666
:1030200015466A68A24202D22A68002AF7D1244AC9
:103030009268AA4240D01E6808362A681A606B68F7
:103040001B1B102B12D9281910F0070F0AD04FF0B4
:10305000500372B683F31188BFF36F8FBFF34F8FA6
:1030600062B6FEE743606C60FFF782FF6968144A4E
:1030700013695B1A1361D268934201D2104AD3607C
:103080000F4B5B690B436B6000232B60FFF7BAFCAF
:1030900016F0070F12D04FF0500372B683F3118869
:1030A000BFF36F8FBFF34F8F62B6FEE70026EDE7E9
:1030B0000026EBE70026E9E70026E7E7304670BD8B
:1030C00060010020002834D038B50446A0F108057E
:1030D00050F8042C174949690A420AD14FF05003AD
:1030E00072B683F31188BFF36F8FBFF34F8F62B651
:1030F000FEE750F8080C50B14FF0500372B683F35E
:103100001188BFF36F8FBFF34F8F62B6FEE722EADD
:10311000010244F8042CFFF7E3FB54F8041C054AB1
:1031200013690B4413612846FFF722FFFFF76AFC7F
:1031300038BD7047600100200023124A1370124A04
:103140001370124A1380124A1370124A1370124AF3
:103150001370124A1370124A1370124A137005E06A
:10316000114A2021D15401330E4A13700D4B1B78A4
:103170000F2BF5D90C4B11221A700C4B00221A7030
:10318000704700BF803D0020953D00207E3D00201F
:103190007D3D0020833D00209A3D0020963D00208B
:1031A000823D00207C3D0020843D0020813D0020A8
:1031B000F8B555EC104B10EE100A2946FDF786FCC9
:1031C000C0B2174AA2FB0013DB0803EB83014F00D8
:1031D000C71BFFB2DBB2A2FB0312D20802EB8202D2
:1031E00056009B1BDEB2FDF76DF902460B462046EA
:1031F0002946FDF719F800220A4BFDF7CDF9FDF736
:1032000065FC094B1E703036084B1E70084A17705B
:1032100030375F7056229A70C0B23030D870F8BD27
:10322000CDCCCCCC00002440953D0020843D002036
:10323000803D0020020B0E4B1A80C0F30B0000EB08
:10324000800043001B0B0B490B80DBB20A490B705B
:10325000D2B20A490A700A492F20087130324A71E5
:103260002E228A713033CB7141230B72704700BF1D
:103270007E3D0020983D0020833D00207D3D0020C4
:10328000843D002038B505460F4C22680F4B134093
:10329000236000224FF490512046FEF7A1F901224D
:1032A0004FF400512046FEF79BF905F00F036D0027
:1032B00005F4F0751D43656100224FF4005120466E
:1032C000FEF78EF938BD00BF000802400000F0FF95
:1032D00038B50546124C2268124B13402360012278
:1032E0004FF400712046FEF77BF900224FF4805125
:1032F0002046FEF775F901224FF400512046FEF7F3
:103300006FF905F00F036D0005F4F0751D4365615D
:1033100000224FF400512046FEF762F938BD00BF8D
:10332000000802400000F0FF38B5104C2268104B36
:103330001343236000224FF400712046FEF750F93A
:1033400001224FF440512046FEF74AF9256905F065
:103350000F0523695B0803F0F0031D4300224FF4BF
:1033600000512046FEF73CF9E80938BD000802404C
:103370005555050010B5534B1B78082B00F29D8066
:10338000DFE803F005171E2B3B535D7481004E4BA5
:103390001B78142B03D801334B4A13700FE03320F2
:1033A000FFF770FF474B01221A70474B00221A703B
:1033B00005E03320FFF766FF424B02221A7010BD72
:1033C000FFF7B2FF414B18700028F8D10F20FFF72C
:1033D00059FF3C4B03221A70F1E7FFF7A5FF3B4B67
:1033E00018700028EBD10120FFF74CFF354B042269
:1033F0001A70354B00221A70E1E7334B1B78012B12
:103400000FD9FFF791FF314B18700028D7D1062054
:10341000FFF738FF2B4B05221A702B4B00221A7036
:10342000CDE70133284A1370C9E7FFF77DFF274B2B
:1034300018700028C3D1234B06221A70BFE7FFF78C
:1034400073FF224B18700028B9D11F4B1B78642BD7
:1034500008D91C4B07221A7000231D4A13701A4A00
:103460001370ACE70133184A1370A8E7FFF75CFF4D
:10347000164B18700028A2D10220FFF703FF114B52
:1034800008221A709BE7FFF74FFF104B18700028B7
:1034900095D10F4C23780F4AD05C0F4B1870FFF773
:1034A00017FF23780133DBB22370102B87D9054B2C
:1034B00006221A700022227081E7024B00221A7045
:1034C0007DE700BF813D00209A3D0020963D002011
:1034D0007C3D0020843D0020943D00202DE9F043F8
:1034E0008BB0514B1A6B42F004021A631A6B02F054
:1034F00004020092009A1A6B42F080021A631A6B5F
:1035000002F080020192019A1A6B42F001021A63E2
:103510001A6B02F001020292029A1A6B42F0020246
:103520001A631A6B02F002020392039A1A6B42F0BA
:1035300008021A631B6B03F008030493049BDFF873
:10354000F480002243F2DF314046FEF749F8374F5E
:1035500000224FF4C0513846FEF742F8DFF8D89009
:10356000002204214846FEF73BF8314D00224FF47B
:1035700048712846FEF734F843F2DF3305930126FD
:10358000069600240794089405A94046FDF744FFD9
:103590004FF00308CDF814800694079405A9284637
:1035A000FDF73AFF4FF45043059302230693079427
:1035B000CDF820800C23099305A92846FDF72CFFA0
:1035C0004FF4005305930694079405A92846FDF788
:1035D00023FF4FF480730593CDF81880079405A955
:1035E0003846FDF719FF4FF4C0530593069607942C
:1035F000089405A93846FDF70FFF042305930696A6
:103600000794089405A94846FDF706FF4FF4487350
:10361000059306960794089405A92846FDF7FCFE35
:103620000BB0BDE8F08300BF00380240000002404C
:103630000004024000080240000C024000000000AC
:1036400008B5374B00221A60FFF776FD344A13683D
:1036500001331360334C2046FDF7B8FC324E304640
:10366000FDF7B4FC314D2846FDF7B0FC642120463F
:10367000FDF728FD64213046FDF724FD642128462E
:10368000FDF720FD2046FDF778FD294B186080B23C
:1036900000F0B6F9274B83ED000B40F24C4142F2AB
:1036A000107000F0C5F9244B83ED000BFFF780FD8F
:1036B0003046FDF762FD214B186080B200F0A0F9A2
:1036C00051EC100B1E4B83ED000BFDF7FFF94FF48F
:1036D0007A719FED110B80B200F0E2F951EC100B02
:1036E000184B83ED000BFDF7F1F980B2FFF7A2FD57
:1036F0002846FDF742FD144B18602046FDF766FC96
:103700002046FDF73AFD114B1860FFF733FE01200C
:10371000FEF7F8FE9AE700BF1F85EB51B81ED53FB4
:10372000C4400020183F0020E43D0020603F0020FE
:1037300074400020D040002058400020143F00205A
:10374000683E002018400020C8400020603E002055
:1037500008B50268034B9A4200D008BDFDF762FB32
:10376000FBE700BF00440140FEE7000000B5B5B034
:10377000394B1A6C42F080521A641B6C03F0805370
:103780000193019B354A136823F4404343F480437B
:103790001360136803F440430293029B09232893A8
:1037A0004FF48033299301232D9302232E934FF45A
:1037B00080022F92082230926022319232930423A9
:1037C000339328A8FDF750FF002832D1FDF70EFFF4
:1037D000002832D10F23239302232493002325931F
:1037E0004FF4805226922793032123A8FEF78CF9E9
:1037F00040BB1B4B03934FF400730D9300231293B4
:10380000209303A8FEF766FA08BBFEF72FFA154BC4
:10381000A3FB00308009FDF7D9FD0420FDF7ECFD86
:1038200000220F214FF0FF30FDF792FD35B05DF81B
:1038300004FBFD210C48FFF797FF4FF482710A4803
:10384000FFF792FF4FF489710748FFF78DFF4FF4A0
:103850008E710548FFF788FF003802400070004075
:1038600060002000D34D62104C3E000800B585B0CA
:103870001648174B03604FF4803343600023836086
:10388000036183610362C362124A8262C3600122E0
:10389000C26103634261FDF76FFB60B900230093CF
:1038A00001220192029369460848FDF769FC38B984
:1038B00005B05DF804FB40F241110748FFF754FFE3
:1038C00040F24B110448FFF74FFF00BF183F0020A4
:1038D000002001400100000F4C3E000800B585B0FB
:1038E0001648174B03604FF4803343600023836016
:1038F000036183610362C362124A8262C360012270
:10390000C26103634261FDF737FB60B90123009395
:1039100001930023029369460848FDF731FC38B94A
:1039200005B05DF804FB4FF4B3710748FFF71CFFC7
:103930004FF4B8710448FFF717FF00BFE43D0020C3
:10394000002101400100000F4C3E000800B585B089
:103950001648174B03604FF48033436000238360A5
:10396000036183610362C362124A8262C3600122FF
:10397000C26103634261FDF7FFFA68B90323009354
:10398000012301930023029369460848FDF7F8FBE1
:1039900038B905B05DF804FB40F28B110648FFF71B
:1039A000E3FE40F295110448FFF7DEFE603F002081
:1039B000002201400100000F4C3E000800B587B016
:1039C000FDF724FAFFF7D2FEFFF788FDFFF74EFF61
:1039D000FFF784FFFFF7BAFF01AC074D0FCD0FC40F
:1039E0002B682360002101A8FEF772FD034B1860CD
:1039F000FEF769FDFEE700BF083E0008A03D00207D
:103A000008B5FCF75FFD07A3D3E90023FCF7C4FD6D
:103A10000022034BFCF7C0FD41EC100B08BD00BFBA
:103A20000000303F6666666666660A400000000079
:103A30002DE9F8432DED028BB0EE408AF0EE608A5E
:103A400007460E46FCF72EFD804689463046FCF7B9
:103A500029FD04460D4602460B4640464946FCF702
:103A6000E5FB00220023FCF7FFFF80B9B819FCF743
:103A700019FD53EC182BFCF78FFD22462B46FCF763
:103A8000B5FE41EC100BBDEC028BBDE8F8839FED59
:103A9000020BF8E7AFF30080000000000000000018
:103AA0002DE9F843804657EC106B0D464FF00104AA
:103AB0000022002310EE100A3946FCF7D5FF08B1AA
:103AC0004FF00004E4B2002D08BF0024F4B14046DA
:103AD000FCF7E8FC8046894611A3D3E90023304671
:103AE0003946FCF759FD06460F462846FCF7DAFC36
:103AF00032463B46FCF750FD02460B4640464946DF
:103B0000FCF774FE41EC100BBDE8F8839FED020B4F
:103B1000FAE700BFAFF300800000000000000000E3
:103B2000FCA9F1D24D62503F00B583B0214B1A6C15
:103B300042F080521A641A6C02F080520092009A8D
:103B40005A6C42F480425A645B6C03F480430193E4
:103B5000019B0320FDF7EAFB002211466FF00B00EA
:103B6000FDF7F6FB002211466FF00A00FDF7F0FBAF
:103B7000002211466FF00900FDF7EAFB0022114612
:103B80006FF00400FDF7E4FB002211466FF0030024
:103B9000FDF7DEFB00220F216FF00100FDF7D8FBDF
:103BA00000220F214FF0FF30FDF7D2FB03B05DF88C
:103BB00004FB00BF0038024000B589B00368254A05
:103BC000934208D0244A93421AD0244A93422CD0DC
:103BD00009B05DF804FB224B5A6C42F480725A64BF
:103BE0005B6C03F480730093009B05230393032312
:103BF00004930023059303A91A48FDF70DFCE7E79A
:103C0000174B5A6C42F400725A645B6C03F40073F5
:103C10000193019B02230393032304930023059341
:103C200003A91048FDF7F8FBD2E70D4B5A6C42F49C
:103C300080625A645B6C03F480630293029B0823E6
:103C40000393032304930023059303A90548FDF779
:103C5000E3FBBDE7002001400021014000220140BC
:103C6000003802400000024000B589B00022014641
:103C70001920FDF76DFB1920FDF79CFB144B5A6CC6
:103C800042F400325A645B6C03F400330193019BED
:103C900002A903A8FEF700F8FDF7EEFF0D4BA3FB0A
:103CA00000239B0C013B0C480C4A026040F2E732B7
:103CB000C2604360002303618360FEF7E3FB18B139
:103CC000012009B05DF804FB0348FEF778FAF8E735
:103CD0000038024083DE1B4338410020004401408D
:103CE0007047FEE7FEE7FEE7FEE7704708B5FEF720
:103CF00012FC08BD08B50248FEF771FA08BD00BF06
:103D00003841002010B40F4AD2F8883043F47003D1
:103D1000C2F888300C4B196841F00101196000208D
:103D200098601C680949214019600949596019685F
:103D300021F480211960D8604FF0006393605DF832
:103D4000044B704700ED00E000380240FFFFF6FE34
:103D500010300024DFF834D0002103E00C4B5B5816
:103D6000435004310B480C4B42189A42F6D30B4A8D
:103D700002E0002342F8043B094B9A42F9D3FFF7D3
:103D8000C1FF00F011F8FFF719FE70470000042092
:103D9000783E0008000000201000002010000020E5
:103DA00078410020FEE7000070B50D4E0D4CA41BBD
:103DB000A4100025A54209D10B4E0C4C00F018F8B8
:103DC000A41BA4100025A54205D170BD56F82530CE
:103DD00098470135EEE756F8253098470135F2E768
:103DE000703E0008703E0008703E0008743E0008F7
:103DF000F8B500BFF8BC08BC9E467047F8B500BFD8
:083E0000F8BC08BC9E467047A7
:103E08005C3E000841360008000000000000000089
:103E1800800000000000000000000000000000001A
:103E28000000000000000000000000000102030480
:103E380006070809000000000102030449444C4534
:103E4800000000002E2E2F5372632F6D61696E2EB5
:103E58006300000064656661756C745461736B007F
:083E6800D4CCFF7F0100000033
:043E7000050200083F
:043E7400E101000860
:103E78000100000010000000AAAAAAAA0024F40069
:0400000508003D555D
:00000001FF
